:10041F004200030000410008284100072841000165
:10042F002841000028410005004100020041000959
:01043F0000BC
:10044500E4FDFCC3ED9FEC9E5015E4FBFA0BBB00ED
:0F045500010ABA02F8BBCBF50DBD00010C80E423
:010464002275
:1005AF00438901758CFE758A70D2A9D28CD2AF2285
:1003640012058B1203C91205AF1205CB900005E0EC
:10037400C3940540F7E4F0900009E014F0E0700540
:1003840004F012058B90000AE0B401E0E4F0900060
:1003940006E024BE601314601514601724FB601873
:1003A400240870171205538012120566800D12047A
:1003B400E080081204F9800312058B900006E0FF28
:0503C4001205BF80A737
:03000B000202EE00
:1002EE00C0E0C0F0C083C082C0D075D000C000C0D6
:1002FE0001C002C003C004C005C006C007758CFE55
:10030E00758A70900002E004F0E0C3940A4008E49D
:10031E00F0900005E004F0900004E004F070069008
:10032E000003E004F0C3900004E09432900003E078
:10033E0094004004E4F0A3F012000ED007D006D0D3
:10034E0005D004D003D002D001D000D0D0D082D0BE
:06035E0083D0F0D0E03274
:10053E0048616E74656368204D435500436F6D6D61
:05054E00616E643A003B
:10046500E4FDFCC3ED9FEC9E5015E4FBFA0BBB00CD
:0F047500010ABA02F8BBCBF50DBD00010C80E403
:010484002255
:0D048500C286C2857F057E00120492D285DA
:10049200E4FDFCC3ED9FEC9E5008000DBD00010C75
:0204A20080F1E7
:0104A4002235
:10051200C287D286D2857F017E00120492E58033A3
:060522009200C285A20058
:0105280022B0
:10052900AB0712051240FBAF038FA0C287120485E7
:05053900C285020492DE
:0604C5003EF583E493FF05
:1004CB00AB0712051240FBAF038FA0D28712048536
:0504DB00C2850204923D
:1003C900E4FA7F381205297F0C1205297F061205E8
:1003D900297F011205297F647E001204657F80123E
:1003E9000529E4FAEAFF3395E0FE743E2FF582749D
:1003F900051204C50AEAB40BEB7FC0120529E4FA19
:10040900EAFF3395E0FE744A2FF58274051204C59C
:050419000AEAB408EB43
:01041E0022BB
:0C05BF00AA077FC9120529AF020204CB75
:0404400041000A006D
:1004A500E4FDFCC3ED9FEC9E5015E4FBFA0BBB008D
:0F04B500010ABA02F8BBCBF50DBD00010C80E4C3
:0104C4002215
:10057900AD071FED600BE4FEEEC3944450F20E800C
:01058900F77A
:01058A00224E
:0705CB00D2A8D288D2AF22B2
:0300030002016196
:10016100C0E0C083C082C0D075D000C002C003C04F
:0701710004C005C006C00731
:10017800E4FCC2A87F0F12057930B205D2A80202AA
:100188004D9000097428F020B2077F01120579808C
:10019800F6E4FBE4FA30B2077F0112057980F62015
:1001A800B2077F0112057980F630B2117F0112057E
:1001B800790CECC3941E40F1D2A802024D740B2BAB
:1001C800F582E43400F583E0C313F0ECC3940840EF
:1001D8000E740B2BF582E43400F583E04480F07C48
:1001E800000AEAB408AF0BEBB404A890000EE0F4E0
:1001F800FF90000DE0FE6F6004D2A88048EE24EB6B
:10020800601724D5602B24FD601F14601424FE7031
:10021800289000067441F080249000067442F08013
:100228001C9000067443F080149000067444F0801B
:100238000C9000067449F08004D2A8800890000A47
:050248007401F0D2A8D2
:10024D00D007D006D005D004D003D002D0D0D082B4
:05025D00D083D0E03267
:10000E00900008E0FFD3648094804018EF3395E0B1
:10001E00FEC3900004E09F900003E09E5033D29008
:10002E00C2918031900008E0FFC36480948050211B
:10003E00EF3395E0FE7CFF7DFF12059DC39000041B
:10004E00E09F900003E09E5006C290D29180068001
:10005E0000C290C291900007E0FFD364809480406C
:10006E0018EF3395E0FEC3900004E09F900003E08C
:10007E009E5033D297C2968031900007E0FFC36442
:10008E008094805021EF3395E0FE7CFF7DFF1205BA
:10009E009DC3900004E09F900003E09E5006C2971F
:1000AE00D29680068000C297C296900001E0FFD3E0
:1000BE00648094804018EF3395E0FEC3900004E016
:1000CE009F900003E09E5033D293C29280319000F5
:1000DE0001E0FFC3648094805021EF3395E0FE7CF5
:1000EE00FF7DFF12059DC3900004E09F900003E08A
:1000FE009E5006C293D29280068000C293C2929006
:10010E000000E0FFD3648094804017EF3395E0FE4B
:10011E00C3900004E09F900003E09E5031D294C241
:10012E009522900000E0FFC3648094805020EF334E
:10013E0095E0FE7CFF7DFF12059DC3900004E09FBD
:10014E00900003E09E5005C294D295228000C29486
:03015E00C2952225
:100553009000087428F0900007F0900001F09000DC
:0305630000F02283
:1005660090000874D8F0900007F0900001F0900019
:0305760000F02270
:1004E00090000874ECF09000077428F090000174FC
:0904F000ECF09000007432F022DF
:1004F9009000087428F090000774ECF090000174E3
:0905090032F090000074ECF022C5
:10058B00E4900008F0900007F0900001F09000005C
:02059B00F0224C
:0300000002026297
:0C026200787FE4F6D8FD7581200202A927
:10059D00EF8DF0A4A8F0CF8CF0A428CE8DF0A42E72
:0205AD00FE222C
:10026E00020364E493A3F8E493A34003F68001F23F
:10027E0008DFF48029E493A3F85407240CC8C33391
:10028E00C4540F4420C8834004F456800146F6DF60
:10029E00E4800B010204081020408090041FE47ECD
:1002AE00019360BCA3FF543F30E509541FFEE49355
:1002BE00A360010ECF54C025E060A840B8E493A31C
:1002CE00FAE493A3F8E493A3C8C582C8CAC583CA47
:1002DE00F0A3C8C582C8CAC583CADFE9DEE780BEFF
:0104440000B7
:00000001FF
