:100344004200030000410008284100072841000141
:100354002841000028410005004100020041000935
:01036400494F
:10036600E4FDFCC3ED9FEC9E5015E4FBFA0BBB00CD
:0F037600010ABA02F8BBCBF50DBD00010C80E403
:010385002255
:10049E00438901758CFE758A70D2A9D28CD2AF2297
:10031B0030830830810530820280173082079000CD
:10032B00067444F0223081079000067443F02230AB
:09033B0083069000067441F022D3
:1002630012047A1202C512049E120454900005E08F
:10027300C3940540F7E4F012031B900006E0FF90DF
:100283000009E06F60E6EFF024BE601314601514FC
:10029300601724FB6018240870171204548012128C
:1002A3000467800D1203E180081203FA800312042D
:1002B3007A7F0A7E00120366900006E0FF1204AE06
:0202C30080AA0F
:03000B000201ED02
:1001ED00C0E0C0F0C083C082C0D075D000C000C0D8
:1001FD0001C002C003C004C005C006C007758CFE57
:10020D00758A70900002E004F0E0C3940A4008E49F
:10021D00F0900005E004F0900004E004F07006900A
:10022D000003E004F0C3900004E09432900003E07A
:10023D0094004004E4F0A3F012000ED007D006D0D5
:10024D0005D004D003D002D001D000D0D0D082D0C0
:06025D0083D0F0D0E03276
:10043F0048616E74656368204D435500436F6D6D61
:05044F00616E643A003B
:10038600E4FDFCC3ED9FEC9E5015E4FBFA0BBB00AD
:0F039600010ABA02F8BBCBF50DBD00010C80E4E3
:0103A5002235
:0D03A600C286C2857F057E001203B3D2859A
:1003B300E4FDFCC3ED9FEC9E5008000DBD00010C55
:0203C30080F1C7
:0103C5002215
:10041300C287D286D2857F017E001203B3E5803383
:060423009200C285A20058
:0104290022B0
:10042A00AB0712041340FBAF038FA0C2871203A6C7
:05043A00C2850203B3BE
:0603C6003EF583E493FF05
:1003CC00AB0712041340FBAF038FA0D2871203A616
:0503DC00C2850203B31D
:1002C500E4FA7F3812042A7F0C12042A7F061204EE
:1002D5002A7F0112042A7F647E001203867F801222
:1002E500042AE4FAEAFF3395E0FE743F2FF58274A1
:1002F500041203C60AEAB40BEB7FC012042AE4FA1F
:10030500EAFF3395E0FE744B2FF58274041203C6A1
:050315000AEAB408EB48
:01031A0022C0
:0C04AE00AA077FC912042AAF020203CC87
:10000E00900008E0FFD3648094804018EF3395E0B1
:10001E00FEC3900004E09F900003E09E5033D29008
:10002E00C2918031900008E0FFC36480948050211B
:10003E00EF3395E0FE7CFF7DFF12048CC39000042D
:10004E00E09F900003E09E5006C290D29180068001
:10005E0000C290C291900007E0FFD364809480406C
:10006E0018EF3395E0FEC3900004E09F900003E08C
:10007E009E5033D297C2968031900007E0FFC36442
:10008E008094805021EF3395E0FE7CFF7DFF1204BB
:10009E008CC3900004E09F900003E09E5006C29730
:1000AE00D29680068000C297C296900001E0FFD3E0
:1000BE00648094804018EF3395E0FEC3900004E016
:1000CE009F900003E09E5033D293C29280319000F5
:1000DE0001E0FFC3648094805021EF3395E0FE7CF5
:1000EE00FF7DFF12048CC3900004E09F900003E09C
:1000FE009E5006C293D29280068000C293C2929006
:10010E000000E0FFD3648094804017EF3395E0FE4B
:10011E00C3900004E09F900003E09E5031D294C241
:10012E009522900000E0FFC3648094805020EF334E
:10013E0095E0FE7CFF7DFF12048CC3900004E09FCF
:10014E00900003E09E5005C294D295228000C29486
:03015E00C2952225
:100454009000087428F0900007F0900001F09000DC
:0304640000F02283
:1004670090000874D8F0900007F0900001F0900019
:0304770000F02270
:1003E10090000874F6F09000077432F090000174E8
:0903F100F6F09000007432F022D5
:1003FA009000087432F090000774F6F090000174CF
:09040A0032F090000074F6F022BB
:10047A00E4900008F0900007F0900001F09000006E
:02048A00F0225E
:0300000002016199
:0C016100787FE4F6D8FD7581200201A82B
:10048C00EF8DF0A4A8F0CF8CF0A428CE8DF0A42E84
:02049C00FE223E
:10016D00020263E493A3F8E493A34003F68001F243
:10017D0008DFF48029E493A3F85407240CC8C33393
:10018D00C4540F4420C8834004F456800146F6DF62
:10019D00E4800B0102040810204080900344E47EAB
:1001AD00019360BCA3FF543F30E509541FFEE49357
:1001BD00A360010ECF54C025E060A840B8E493A31E
:1001CD00FAE493A3F8E493A3C8C582C8CAC583CA49
:1001DD00F0A3C8C582C8CAC583CADFE9DEE780BE01
:010365000097
:00000001FF
