:1004790042000300004100081E4100071E4100011F
:100489001E4100001E410005004100020041000A12
:05049900004100090014
:1004A300E4FDFCC3ED9FEC9E5015E4FBFA0BBB008F
:0F04B300010ABA02F8BBCBF50DBD00010C80E4C5
:0104C2002217
:0A062A00AE078E993099FDC29922A7
:10058700759850438920758780758DE6758BE6D2FF
:060597008ED2ACD2AF22AF
:10060E00438901758CFE758A70D2A9D28CD2AF2225
:100306001205EA1205871203F312060E120634903E
:100316000005E0C3940540F7E4F090000AE014F00D
:10032600E0700504F01205EA90000BE06401600736
:10033600900009E0B401D8E490000BF0900009F0B9
:10034600900006E024BE601314601514601724FBA9
:100356006018240870171205B280121205C5800DA8
:1003660012053E800812055780031205EA90000622
:07037600E0FF12061E809853
:03000B0002037D70
:10037D00C0E0C0F0C083C082C0D075D000C000C046
:10038D0001C002C003C004C005C006C007758CFEC5
:10039D00758A70900002E004F0E0C3940A402CE4EA
:1003AD00F0900004E004F07006900003E004F0907B
:1003BD000005E004F0C3900004E09432900003E0E7
:1003CD0094004004E4F0A3F0120026D007D006D02C
:1003DD0005D004D003D002D001D000D0D0D082D02F
:0603ED0083D0F0D0E032E5
:030023000204498B
:0D044900C0E0C083C082C0D075D000C007E5
:10045600309815AF999000097401F0900006EFF0FE
:08046600C29890000A7428F00E
:0B046E00D007D0D0D082D083D0E03285
:10059D0048616E74656368204D435500436F6D6D02
:0505AD00616E643A00DC
:1004C300E4FDFCC3ED9FEC9E5015E4FBFA0BBB006F
:0F04D300010ABA02F8BBCBF50DBD00010C80E4A5
:0104E20022F7
:0D04E300C286C2857F057E001204F0D2851E
:1004F000E4FDFCC3ED9FEC9E5008000DBD00010C17
:0205000080F188
:0105020022D6
:10057000C287D286D2857F017E001204F0E58033E7
:060580009200C285A200FA
:010586002252
:10000E00AB0712057040FBAF038FA0C2871204E34B
:05001E00C2850204F0A0
:060523003EF583E493FFA6
:10052900AB0712057040FBAF038FA0D2871204E31B
:05053900C2850204F080
:1003F300E4FA7F3812000E7F0C12000E7F06120003
:100403000E7F0112000E7F647E001204C37F8012F0
:10041300000EE4FAEAFF3395E0FE749D2FF5827433
:10042300051205230AEAB40BEB7FC012000EE4FAAF
:10043300EAFF3395E0FE74A92FF5827405120523B4
:050443000AEAB408EB19
:010448002291
:0C061E00AA077FC912000EAF02020529D6
:04049E0041000B000E
:10050300E4FDFCC3ED9FEC9E5015E4FBFA0BBB002E
:0F051300010ABA02F8BBCBF50DBD00010C80E464
:0105220022B6
:1005D800AD071FED600BE4FEEEC3944450F20E80AD
:0105E800F71B
:0105E90022EF
:07063400D2A8D288D2AF2248
:030003000201797E
:10017900C0E0C083C082C0D075D000C002C003C037
:0701890004C005C006C00719
:10019000E4FCC2A87F0F1205D830B205D2A8020233
:1001A0006590000A7428F020B2077F011205D880FC
:1001B000F6E4FBE4FA30B2077F011205D880F6209E
:1001C000B2077F011205D880F630B2117F01120507
:1001D000D80CECC3941E40F1D2A8020265740C2B1B
:1001E000F582E43400F583E0C313F0ECC3940840D7
:1001F0000E740C2BF582E43400F583E04480F07C2F
:10020000000AEAB408AF0BEBB404A890000FE0F4C6
:10021000FF90000EE0FE6F6004D2A88048EE24EB51
:10022000601724D5602B24FD601F14601424FE7019
:10023000289000067441F080249000067442F080FB
:100240001C9000067443F080149000067444F08003
:100250000C9000067449F08004D2A8800890000B2E
:050260007401F0D2A8BA
:10026500D007D006D005D004D003D002D0D0D0829C
:05027500D083D0E0324F
:10002600900008E0FFD3648094804018EF3395E099
:10003600FEC3900004E09F900003E09E5033D290F0
:10004600C2918031900008E0FFC364809480502103
:10005600EF3395E0FE7CFF7DFF1205FCC3900004A4
:10006600E09F900003E09E5006C290D291800680E9
:1000760000C290C291900007E0FFD3648094804054
:1000860018EF3395E0FEC3900004E09F900003E074
:100096009E5033D297C2968031900007E0FFC3642A
:1000A6008094805021EF3395E0FE7CFF7DFF1205A2
:1000B600FCC3900004E09F900003E09E5006C297A8
:1000C600D29680068000C297C296900001E0FFD3C8
:1000D600648094804018EF3395E0FEC3900004E0FE
:1000E6009F900003E09E5033D293C29280319000DD
:1000F60001E0FFC3648094805021EF3395E0FE7CDD
:10010600FF7DFF1205FCC3900004E09F900003E012
:100116009E5006C293D29280068000C293C29290ED
:100126000000E0FFD3648094804017EF3395E0FE33
:10013600C3900004E09F900003E09E5031D294C229
:100146009522900000E0FFC3648094805020EF3336
:1001560095E0FE7CFF7DFF1205FCC3900004E09F46
:10016600900003E09E5005C294D295228000C2946E
:03017600C295220D
:1005B200900008741EF0900007F0900001F0900087
:0305C20000F02224
:1005C50090000874E2F0900007F0900001F09000B0
:0305D50000F02211
:10053E0090000874ECF0900007741EF090000174A7
:09054E00ECF09000007428F0228A
:10055700900008741EF090000774ECF0900001748E
:0905670028F090000074ECF02271
:1005EA00E4900008F0900007F0900001F0900000FD
:0205FA00F022ED
:0300000002027A7F
:0C027A00787FE4F6D8FD7581200202C1F7
:1005FC00EF8DF0A4A8F0CF8CF0A428CE8DF0A42E13
:02060C00FE22CC
:10028600020306E493A3F8E493A34003F68001F285
:1002960008DFF48029E493A3F85407240CC8C33379
:1002A600C4540F4420C8834004F456800146F6DF48
:1002B600E4800B0102040810204080900479E47E5B
:1002C600019360BCA3FF543F30E509541FFEE4933D
:1002D600A360010ECF54C025E060A840B8E493A304
:1002E600FAE493A3F8E493A3C8C582C8CAC583CA2F
:1002F600F0A3C8C582C8CAC583CADFE9DEE780BEE7
:0104A2000059
:00000001FF
