:10038B0042000300004100081E4100071E4100010E
:10039B001E4100001E410005004100020041000A01
:0503AB00004100090003
:1003B100E4FDFCC3ED9FEC9E5015E4FBFA0BBB0082
:0F03C100010ABA02F8BBCBF50DBD00010C80E4B8
:0103D000220A
:0A050600AE078E993099FDC29922CC
:10047500759850438920758780758DE6758BE6D212
:060485008ED2ACD2AF22C2
:1004EA00438901758CFE758A70D2A9D28CD2AF224B
:10035E0020800F1204B37F2C7E011203B1120445CC
:10036E0080102084141204B37F2C7E011203B1126C
:0D037E00042C7FF47E010203B11204A022C2
:10027B001204C61204751202D81204EA1204A090DA
:10028B000005E0C3940540F7E4F012035E9000090B
:10029B00E0B401EBE4F0900006E024BE60131460C0
:1002AB001514601724FB6018240870171204A08023
:1002BB00121204B3800D12042C8008120445800323
:0D02CB001204C6900006E0FF1204FA80B293
:03000B00020205E9
:10020500C0E0C0F0C083C082C0D075D000C000C0BF
:1002150001C002C003C004C005C006C007758CFE3E
:10022500758A70900002E004F0E0C3940A402CE463
:10023500F0900004E004F07006900003E004F090F4
:100245000005E004F0C3900004E09432900003E060
:1002550094004004E4F0A3F0120026D007D006D0A5
:1002650005D004D003D002D001D000D0D0D082D0A8
:0602750083D0F0D0E0325E
:0300230002032EA7
:0D032E00C0E0C083C082C0D075D000C00701
:10033B00309815AF999000097401F0900006EFF01A
:08034B00C29890000A7428F02A
:0B035300D007D0D0D082D083D0E032A1
:10048B0048616E74656368204D435500436F6D6D15
:05049B00616E643A00EF
:1003D100E4FDFCC3ED9FEC9E5015E4FBFA0BBB0062
:0F03E100010ABA02F8BBCBF50DBD00010C80E498
:0103F00022EA
:0D03F100C286C2857F057E001203FED28504
:1003FE00E4FDFCC3ED9FEC9E5008000DBD00010C0A
:02040E0080F17B
:0104100022C9
:10045E00C287D286D2857F017E001203FEE58033ED
:06046E009200C285A2000D
:010474002265
:10000E00AB0712045E40FBAF038FA0C2871203F151
:05001E00C2850203FE93
:060411003EF583E493FFB9
:10041700AB0712045E40FBAF038FA0D2871203F134
:05042700C2850203FE86
:1002D800E4FA7F3812000E7F0C12000E7F0612001F
:1002E8000E7F0112000E7F647E001203D17F801200
:1002F800000EE4FAEAFF3395E0FE748B2FF5827462
:10030800041204110AEAB40BEB7FC012000EE4FADF
:10031800EAFF3395E0FE74972FF5827404120411F6
:050328000AEAB408EB35
:01032D0022AD
:0C04FA00AA077FC912000EAF020204170F
:10002600900008E0FFD3648094804018EF3395E099
:10003600FEC3900004E09F900003E09E5033D290F0
:10004600C2918031900008E0FFC364809480502103
:10005600EF3395E0FE7CFF7DFF1204D8C3900004C9
:10006600E09F900003E09E5006C290D291800680E9
:1000760000C290C291900007E0FFD3648094804054
:1000860018EF3395E0FEC3900004E09F900003E074
:100096009E5033D297C2968031900007E0FFC3642A
:1000A6008094805021EF3395E0FE7CFF7DFF1204A3
:1000B600D8C3900004E09F900003E09E5006C297CC
:1000C600D29680068000C297C296900001E0FFD3C8
:1000D600648094804018EF3395E0FEC3900004E0FE
:1000E6009F900003E09E5033D293C29280319000DD
:1000F60001E0FFC3648094805021EF3395E0FE7CDD
:10010600FF7DFF1204D8C3900004E09F900003E037
:100116009E5006C293D29280068000C293C29290ED
:100126000000E0FFD3648094804017EF3395E0FE33
:10013600C3900004E09F900003E09E5031D294C229
:100146009522900000E0FFC3648094805020EF3336
:1001560095E0FE7CFF7DFF1204D8C3900004E09F6B
:10016600900003E09E5005C294D295228000C2946E
:03017600C295220D
:1004A000900008741EF0900007F0900001F090009A
:0304B00000F02237
:1004B30090000874E2F0900007F0900001F09000C3
:0304C30000F02224
:10042C0090000874ECF0900007741EF090000174BA
:09043C00ECF09000007428F0229D
:10044500900008741EF090000774ECF090000174A1
:0904550028F090000074ECF02284
:1004C600E4900008F0900007F0900001F090000022
:0204D600F02212
:0300000002017981
:0C017900787FE4F6D8FD7581200201C0FB
:1004D800EF8DF0A4A8F0CF8CF0A428CE8DF0A42E38
:0204E800FE22F2
:1001850002027BE493A3F8E493A34003F68001F213
:1001950008DFF48029E493A3F85407240CC8C3337B
:1001A500C4540F4420C8834004F456800146F6DF4A
:1001B500E4800B010204081020408090038BE47E4C
:1001C500019360BCA3FF543F30E509541FFEE4933F
:1001D500A360010ECF54C025E060A840B8E493A306
:1001E500FAE493A3F8E493A3C8C582C8CAC583CA31
:1001F500F0A3C8C582C8CAC583CADFE9DEE780BEE9
:0103B000004C
:00000001FF
