:100863004200120000410019144100171441001006
:100873001441000F14410014004100110041001AFB
:0908830049410015004100180B69
:1008F800E4FDFCC3ED9FEC9E5015E4FBFA0BBB0036
:0F090800010ABA02F8BBCBF50DBD00010C80E46B
:0109170022BD
:100A3600438901758CFE758A70D2A9D28CD2AF22F9
:0D0A4600900018740BF07F967E000208F8F7
:0D0A53009000187406F07F967E000208F8EF
:0D0A60009000187412F07F967E000208F8D6
:1004D1007FF47E011208F89000097401F0A3740002
:1004E100F0A37425F0A37401F0A37400F0A37427A2
:0704F100F07B017A00792382
:1004F800900006EBF0A3EAF0A3E9F0120A24120632
:100508009890001BE0F9A3E0FF90000CE0FBA3E04B
:10051800FAA3E0C98FF0120193120A537F647E0098
:100528001208F812069890001BE0F9A3E0FF90006B
:1005380009E0FBA3E0FAA3E0C98FF0120193120AC5
:1005480046120A607F647E001208F812069890002E
:100558001BE0F9A3E0FF900006E0FBA3E0FAA3E0AC
:09056800C98FF0120193020A464A
:1002CF00C390001CE0941490001BE09400400302C4
:0202DF0003D545
:1002E100C3A3E0940E90001BE09400500A120A117F
:1002F1007FF47E011208F81204D8C3900024E09420
:100301000E900023E09400400E900026E0940E90A1
:100311000025E094005006120A111204D190002524
:10032100E0FEA3E0FFD3900024E09F900023E09E35
:10033100500512098C80031209737F907E01120807
:10034100F81204D8C390001CE0940E90001BE094B6
:10035100005006120A111204D1900023E0FEA3E01E
:10036100FF900027E0FCA3E0FDC39FEC9E401B90A3
:100371000025E0FEA3E0FFED9FEC9E400D1209FE7B
:100381001206987F647E000208F8C3900024E0946E
:100391000E900023E09400400E900026E0940E9011
:1003A1000025E094005006120A111204D190002594
:1003B100E0FEA3E0FFD3900024E09F900023E09EA5
:1003C100500512098C80031209737F907E01120877
:0403D100F802069890
:0403D5001209FE22E9
:1003D900C390001CE0940A90001BE09400400302C3
:0203E90004CD41
:1003EB00C3A3E0940890001BE094005008120A117C
:1003FB007F900204C59000097401F0A37400F0A370
:10040B007402F0A37401F0A37400F0A37404F07BE6
:10041B00017A0079001204F8C3900005E09405906E
:10042B000004E094005008120A117F2C0204C5C38B
:10043B00900001E09405900000E09400400E9000C5
:10044B0003E09405900002E094005007120A117F1C
:10045B002C8067900000E0FEA3E0FF900004E0FC1E
:10046B00A3E0FDC39FEC9E4018900002E0FEA3E0CA
:10047B00FFED9FEC9E400A1209FE7F587E02020898
:10048B00F8900002E0FEA3E0FFD3900001E09F9004
:10049B000000E09E500712098C7FF4801D90000035
:1004AB00E0FEA3E0FFC3900003E09F900002E09EFC
:1004BB0040030204001209737FF47E011208F80254
:0204CB0004002B
:0404CD001209FE22F0
:1008A400120A24120A3690001BE4F0A3740FF0120B
:1008B40009D3120A467FE87E031208F8900014E078
:0F08C400C3940540F7E4F01208D31203D980ED76
:03000B000205717A
:10057100C0E0C0F0C083C082C0D075D000C000C050
:1005810001C002C003C004C005C006C007758CFECF
:10059100758A70900011E004F0E0C3940A402CE4E5
:1005A100F0900013E004F07006900012E004F09067
:1005B1000014E004F0C3900013E09432900012E0C4
:1005C10094004004E4F0A3F012002E900015E00422
:1005D100F0900018E0FF900015E0FED39F5004C298
:1005E100B58002D2B5EEC394C84005900015E4F081
:1005F100D007D006D005D004D003D002D001D0005E
:0B060100D0D0D082D083D0F0D0E03207
:1009E90048616E74656368204D435500436F6D6DB2
:0509F900616E643A008C
:10091800E4FDFCC3ED9FEC9E5015E4FBFA0BBB0015
:0F092800010ABA02F8BBCBF50DBD00010C80E44B
:01093700229D
:0D093800C286C2857F057E00120945D2856A
:10094500E4FDFCC3ED9FEC9E5008000DBD00010CBD
:0209550080F12F
:01095700227D
:1009A500C287D286D2857F017E00120945E5803354
:0609B5009200C285A200C1
:0109BB002219
:10001600AB071209A540FBAF038FA0C287120938B0
:05002600C2850209453E
:060958003EF583E493FF6D
:10095E00AB071209A540FBAF038FA0D2871209384F
:05096E00C285020945ED
:10078000E4FA7F381200167F0C1200167F06120062
:10079000167F011200167F647E001209187F8012F6
:1007A0000016E4FAEAFF3395E0FE74E92FF582744F
:1007B000091209580AEAB40BEB7FC0120016E4FADA
:1007C000EAFF3395E0FE74F52FF58274091209589B
:0507D0000AEAB408EB89
:0107D5002201
:0C0A6D00AA077FC9120016AF0202095E42
:10002E00900019E0FFD3648094804018EF3395E080
:10003E00FEC3900013E09F900012E09E5033D290CA
:10004E00C2918031900019E0FFC3648094805021EA
:10005E00EF3395E0FE7CFF7DFF120181C39000130C
:10006E00E09F900012E09E5006C290D291800680D2
:10007E0000C290C291900017E0FFD364809480403C
:10008E0018EF3395E0FEC3900013E09F900012E04E
:10009E009E5033D297C2968031900017E0FFC36412
:1000AE008094805021EF3395E0FE7CFF7DFF12019E
:1000BE0081C3900013E09F900012E09E5006C297FD
:1000CE00D29680068000C297C296900010E0FFD3B1
:1000DE00648094804018EF3395E0FEC3900013E0E7
:1000EE009F900012E09E5033D293C29280319000C6
:1000FE0010E0FFC3648094805021EF3395E0FE7CC6
:10010E00FF7DFF120181C3900013E09F900012E06B
:10011E009E5006C293D29280068000C293C29290E5
:10012E00000FE0FFD3648094804017EF3395E0FE1C
:10013E00C3900013E09F900012E09E5031D294C203
:10014E00952290000FE0FFC3648094805020EF331F
:10015E0095E0FE7CFF7DFF120181C3900013E09FAE
:10016E00900012E09E5005C294D295228000C29457
:03017E00C2952205
:1009FE009000197414F0900017F0900010F0900011
:030A0E000FF022C4
:100A110090001974ECF0900017F0900010F0900025
:030A21000FF022B1
:1009730090001974ECF0900017741EF0900010743E
:09098300ECF090000F7428F02242
:10098C00900019741EF090001774ECF09000107425
:09099C0028F090000F74ECF02229
:100A2400E4900019F0900017F0900010F090000F7F
:020A3400F022AE
:10088C0041001F00420021000042001B00004100FB
:07089C00200042001D0000D6
:1009D300C2B4E4F5CBF5CDF5CAF5CCC2CAD2ADC2EB
:0609E300AAD28AD2BA225A
:10070F0090001FE06401702ED2B404F0E4F5CDF533
:10071F00CCD2CAE5CCC3942A40F990001F7402F0E2
:10072F00C2B4E4F5CDF5CCC2CA30B3FDD2AAD2CA59
:10073F0090001F7403F090001FE0B4042A90002172
:10074F00E0FEA3E0FFE4FCFD7B22FAF9F81201B210
:10075F00E47B407A1FF9F812081F90001BEEF0A3FC
:10076F00EFF0E490001FF090001FE0B40502E4F0FA
:01077F002257
:0700030090001F7401F022C0
:1008D30090001EE004F0700690001DE004F0C39049
:1008E300001EE0941490001DE094004007E4F0A380
:0508F300F0120698223E
:10069800D2B490001F7401F0E4F5CDF5CCD2CAE5D0
:1006A800CCC3942A40F990001F7402F0C2B4E4F558
:1006B800CDF5CCC2CA30B3FDD2CA30B30A90001F00
:1006C800E0B405F6E4F022AFCDEFFEADCC7C00E45B
:1006D8002DFFEC3E900021F0A3EFF0C2CA9000215C
:1006E800E0FEA3E0FFE4FD7B22FAF9F81201B2E490
:1006F8007B407A1FF9F812081F90001BEEF0A3EF59
:07070800F0E490001FF02255
:030013000207D60B
:1007D600C0E0C083C082C0D075D000C004C005C0D0
:1007E60006C00790001FE0B4031EAFCDEFFEADCCF0
:1007F6007C00E42DFFEC3E900021F0A3EFF0C2AAAE
:10080600C2CA90001F7404F0D007D006D005D004E9
:09081600D0D0D082D083D0E032B2
:03002B000209BC0B
:1009BC00C0E0C083C082C2CFC2AA90001F7405F0F1
:0709CC00D082D083D0E0329D
:0300000002060CE9
:0C060C00787FE4F6D8FD758120020653CB
:10018100EF8DF0A4A8F0CF8CF0A428CE8DF0A42E92
:02019100FE224C
:10019300BB010A89828A83F0E5F0A3F0225006F7B7
:0F01A30009A7F01922BBFE06F3E5F009F31922B4
:1001B200E88FF0A4CC8BF0A42CFCE98EF0A42CFCEC
:1001C2008AF0EDA42CFCEA8EF0A4CDA8F08BF0A46A
:1001D2002DCC3825F0FDE98FF0A42CCD35F0FCEBC9
:1001E2008EF0A4FEA9F0EB8FF0A4CFC5F02ECD398E
:0F01F200FEE43CFCEAA42DCE35F0FDE43CFC22FB
:10081F00C2D5E830E70FB2D5E4C39BFBE49AFAE404
:10082F0099F9E498F8EC30E717B2D512085512028F
:10083F003DE4C39BFBE49AFAE499F9E498F880034A
:10084F0012023D30D50DE4C39FFFE49EFEE49DFDF3
:04085F00E49CFC22F7
:100618000208A4E493A3F8E493A34003F68001F24C
:1006280008DFF48029E493A3F85407240CC8C333E3
:10063800C4540F4420C8834004F456800146F6DFB2
:10064800E4800B0102040810204080900863E47ED7
:10065800019360BCA3FF543F30E509541FFEE493A7
:10066800A360010ECF54C025E060A840B8E493A36E
:10067800FAE493A3F8E493A3C8C582C8CAC583CA99
:10068800F0A3C8C582C8CAC583CADFE9DEE780BE51
:0108A3000054
:1002010075F008758200EF2FFFEE33FECD33CDCCB4
:1002110033CCC58233C5829BED9AEC99E582984037
:100221000CF582EE9BFEED9AFDEC99FC0FD5F0D614
:10023100E4CEFBE4CDFAE4CCF9A88222B800C1B93E
:100241000059BA002DEC8BF084CFCECDFCE5F0CB7C
:10025100F97818EF2FFFEE33FEED33FDEC33FCEBB5
:1002610033FB10D703994004EB99FB0FD8E5E4F970
:10027100FA227818EF2FFFEE33FEED33FDEC33FC5D
:10028100C933C910D7059BE99A4007EC9BFCE99A51
:10029100F90FD8E0E4C9FAE4CCFB2275F010EF2F96
:1002A100FFEE33FEED33FDCC33CCC833C810D70796
:1002B1009BEC9AE899400AED9BFDEC9AFCE899F8D1
:0E02C1000FD5F0DAE4CDFBE4CCFAE4C8F92264
:00000001FF
