:100A630042003200004100371E4100361E41003073
:100A73001E41002F1E410034004100310041002E71
:050A83000041003849AC
:100B2300E4FDFCC3ED9FEC9E5015E4FBFA0BBB0008
:0F0B3300010ABA02F8BBCBF50DBD00010C80E43E
:010B42002290
:100C6400438901758CFE758A70D2A9D28CD2AF22C9
:10083400308008208405120BB7800920800D308495
:100844000A120B9E7F1E7E00020B23C390003AE027
:100854009405900039E09400400DD3A3E0940790F0
:100864000039E09400400FD390003AE094329000B5
:1008740039E094004003020C52A280308401B3405A
:100884002390003AE09405900039E094005003125C
:100894000C3FD390003AE09407900039E094004074
:0508A40003120C2C22E0
:100AA000120C52120980120C64120C16900034E0E1
:100AB000C3940540F7E4F090002EE004F0E09428A1
:100AC000400DE4F0900039E0FEA3E0FF12091A1295
:070AD0000AFE12083480D574
:03000B000207BE2B
:1007BE00C0E0C0F0C083C082C0D075D000C000C001
:1007CE0001C002C003C004C005C006C007758CFE80
:1007DE00758A70900031E004F0E0C3940A402CE476
:1007EE00F0900033E004F07006900032E004F090D8
:1007FE000034E004F0C3900033E09432900032E015
:10080E0094004004E4F0A3F0120560D007D006D0A7
:10081E0005D004D003D002D001D000D0D0D082D0E9
:06082E0083D0F0D0E0329F
:100BD000253033640044697374616E63653A004381
:080BE0006F6D6D616E643A0057
:100B4300E4FDFCC3ED9FEC9E5015E4FBFA0BBB00E8
:0F0B5300010ABA02F8BBCBF50DBD00010C80E41E
:010B62002270
:0D0B6300C286C2857F057E00120B70D28510
:100B7000E4FDFCC3ED9FEC9E5008000DBD00010C90
:020B800080F102
:010B82002250
:100BE800C287D286D2857F017E00120B70E58033E2
:060BF8009200C285A2007C
:010BFE0022D4
:10001600AB07120BE840FBAF038FA0C287120B633E
:05002600C285020B7011
:060B83003EF583E493FF40
:100B8900AB07120BE840FBAF038FA0D287120B63B0
:050B9900C285020B7093
:10098000E4FA7F381200167F0C1200167F06120060
:10099000167F011200167F647E00120B437F8012C7
:1009A0000016E4FAEAFF3395E0FE74D52FF5827461
:1009B0000B120B830AEAB409EB7FC0120016E4FAAB
:1009C000EAFF3395E0FE74DF2FF582740B120B8380
:0509D0000AEAB408EB87
:0109D50022FF
:0C0C7400AA077FC9120016AF02020B890C
:10091A00E4900004F0A3F0900003F090000974FF43
:10092A00F0A3740BF0A374D0F0A3EEF0A3EFF07B66
:10093A00017A0079001200937F8A120016E490006F
:10094A0004F0A3F0900004E0FEA3E0FFC39403EEDA
:10095A0064809480501F74002FF58274003EF583E2
:10096A00E0FF120B89900005E004F070D7900004B4
:05097A00E004F080CF55
:01097F002255
:10056000900037E0FFD3648094804018EF3395E02B
:10057000FEC3900033E09F900032E09E5033D29053
:10058000C2918031900037E0FFC364809480502195
:10059000EF3395E0FE7CFF7DFF120393C3900033A1
:1005A000E09F900032E09E5006C290D2918006807B
:1005B00000C290C291900036E0FFD36480948040E6
:1005C00018EF3395E0FEC3900033E09F900032E0D7
:1005D0009E5033D297C2968031900036E0FFC364BC
:1005E0008094805021EF3395E0FE7CFF7DFF120365
:1005F00093C3900033E09F900032E09E5006C29774
:10060000D29680068000C297C296900030E0FFD359
:10061000648094804018EF3395E0FEC3900033E08F
:100620009F900032E09E5033D293C292803190006E
:1006300030E0FFC3648094805021EF3395E0FE7C6E
:10064000FF7DFF120393C3900033E09F900032E0E0
:100650009E5006C293D29280068000C293C29290AE
:10066000002FE0FFD3648094804017EF3395E0FEC5
:10067000C3900033E09F900032E09E5031D294C28C
:10068000952290002FE0FFC3648094805020EF33C8
:1006900095E0FE7CFF7DFF120393C3900033E09F43
:1006A000900032E09E5005C294D295228000C29400
:0306B000C29522CE
:100C2C00900037741EF0900036F0900030F0900079
:030C3C002FF02274
:100C3F0090003774E2F0900036F0900030F09000A2
:030C4F002FF02261
:100B9E0090003774ECF0900036741EF090003074B4
:090BAE00ECF090002F7428F022F5
:100BB700900037741EF090003674ECF0900030749B
:090BC70028F090002F74ECF022DC
:100C5200E4900037F0900036F0900030F090002FD2
:020C6200F0227E
:100A880041003D0042003F000042003900004100A3
:070A98003E0042003B00009C
:100C1600C2B4E4F5CBF5CDF5CAF5CCC2CAD2ADC2A5
:060C2600AAD28AD2BA2214
:1008A90090003DE06401702ED2B404F0E4F5CDF57A
:1008B900CCD2CAE5CCC3942A40F990003D7402F029
:1008C900C2B4E4F5CDF5CCC2CA30B3FDD2AAD2CABE
:1008D90090003D7403F090003DE0B4042A90003F7D
:1008E900E0FEA3E0FFE4FCFD7B22FAF9F81203A580
:1008F900E47B407A1FF9F8120A1F900039EEF0A341
:10090900EFF0E490003DF090003DE0B40502E4F022
:0109190022BB
:0700030090003D7401F022A2
:100AFE0090003CE004F0700690003BE004F0C390E0
:100B0E00003CE0940F90003BE094004007E4F0A31B
:050B1E00F012073F2268
:10073F00D2B490003D7401F0E4F5CDF5CCD2CAE50A
:10074F00CCC3942A40F990003D7402F0C2B4E4F592
:10075F00CDF5CCC2CA30B3FDD2CA30B31290003D32
:10076F00E0B405F6E4F0900039F0A3F0D2AF22AF79
:10077F00CDEFFEADCC7C00E42DFFEC3E90003FF0C2
:10078F00A3EFF0C2CA90003FE0FEA3E0FFE4FD7BC1
:10079F0022FAF9F81203A5E47B407A1FF9F8120A3E
:0F07AF001F900039EEF0A3EFF0E490003DF02230
:030013000209D609
:1009D600C0E0C083C082C0D075D000C004C005C0CE
:1009E60006C00790003DE0B4031EAFCDEFFEADCCD0
:1009F6007C00E42DFFEC3E90003FF0A3EFF0C2AA8E
:100A0600C2CA90003D7404F0D007D006D005D004C9
:090A1600D0D0D082D083D0E032B0
:03002B00020BFFC6
:100BFF00C0E0C083C082C2CFC2AA90003D7405F08E
:070C0F00D082D083D0E03257
:030000000206B342
:0C06B300787FE4F6D8FD7581210206FA7C
:10039300EF8DF0A4A8F0CF8CF0A428CE8DF0A42E7E
:0203A300FE2238
:1003A500E88FF0A4CC8BF0A42CFCE98EF0A42CFCF7
:1003B5008AF0EDA42CFCEA8EF0A4CDA8F08BF0A475
:1003C5002DCC3825F0FDE98FF0A42CCD35F0FCEBD4
:1003D5008EF0A4FEA9F0EB8FF0A4CFC5F02ECD3999
:0F03E500FEE43CFCEAA42DCE35F0FDE43CFC2206
:100A1F00C2D5E830E70FB2D5E4C39BFBE49AFAE402
:100A2F0099F9E498F8EC30E717B2D5120A55120489
:100A3F0088E4C39BFBE49AFAE499F9E498F88003FD
:100A4F0012048830D50DE4C39FFFE49EFEE49DFDA4
:040A5F00E49CFC22F5
:10002E00E5082409F582E43400F583E00508229002
:10003E000006300703900009E475F00112051A025C
:10004E0003F42000E97F2ED2008018EF540F249085
:10005E00D43440D4FF30040BEF24BFB41A00500345
:10006E002461FFE50960021509050CE50C70020517
:10007E000B30070E900006E475F00112051AEF0220
:10008E00043A020AD77403D2078003E4C207F508C4
:10009E00900006120531E4F509F50BF50CE5096043
:1000AE00077F2012007180F5750AFFC201C200C2DF
:1000BE0002C203C205C206C20812003DFF700D3017
:1000CE0007057F00120082AF0CAE0B22B4255FC273
:1000DE00D5C20412003DFF24D0B40A00501A75F0A8
:1000EE000A780930D50508B6FF0106C6A426F62003
:1000FE00D5047002D20380D924CFB41A00EF500475
:10010E00C2E5D204020283D20180C6D20080C0D2E0
:10011E000280BCD2D580BAD20580B47F2012007185
:10012E002002077401B5090040F112002EFF1200E3
:10013E00710200ABD208D206809512002EFB12007F
:10014E002EFA12002EF94A4B700679547A037BFF71
:10015E0020022EE509602A7E008E8275830012042D
:10016E000D60060EEE650A70F0C2D5EBC0E0EAC077
:10017E00E0E9C0E0EE1202CAD0E0F9D0E0FAD0E039
:10018E00FB1203F4FF60AAEBC0E0EAC0E0E9C0E0B6
:10019E00120071D0E02401F9D0E03400FAD0E0FB77
:1001AE00E50A0460DCD50AD980877BFF7A0279C61E
:1001BE00D202809C791080027908C206C20880089B
:1001CE00D2D5790A8004790AC2D5E50A047002F5FF
:1001DE000AE4FAFDFEFF12002EFC7B08200113122A
:1001EE00002EFD7B1030000A12002EFE12002EFF94
:1001FE007B20EC3382D592D55013C3E43000069F9A
:10020E00FFE49EFEE42001039DFDE49CFCE4CBF89C
:10021E00C201EC700CCFCECDCCE824F8F870F38090
:10022E0017C3EF33FFEE33FEED33FDEC33FCEB3350
:10023E00FB994002FB0FD8E9EB300105F8D0E0C482
:10024E0048B201C0E00AEC4D4E4F78207B0070C2E0
:10025E00EAB50A0040BCC0E01202CCD0F0D0E020DB
:10026E000104C4C0E0C4B201C0F012005AD0F0D5EF
:10027E00F0EB0200AB12053A01485301C2580119C6
:10028E004C01154201C64F01CE4401CE49012E4309
:08029E0001D45501B84601B876
:1002A6004501B847037450011D2D01212E01442B31
:1002B600012523014220035D2A00DD480000013CA0
:1002C6003F3F3F00790AA2D5200314300509B91033
:1002D600020404B9080104A2D52006025001042034
:1002E60002689202B509005034C0E07F203003193D
:1002F6007F30A20272067205500F120323C202C299
:1003060006C205C2087F30800F300503E9C0E0123F
:100316000071300503D0E0F9D0E0B509CC300517FF
:100326007F30B9100C1200717F583004077F788037
:1003360003B908031200713002057F2D0200717F98
:10034600202008F87F2B2006F322920280CF286E09
:10035600756C6C2900D20112002E3001F8C20178AA
:100366000930D50108F60200DD2D50434958120028
:100376002E2403B405004001E490036F931200623B
:0D038600743A120062D2037509040201C22C
:1006BF00020AA0E493A3F8E493A34003F68001F2A7
:1006CF0008DFF48029E493A3F85407240CC8C3333C
:1006DF00C4540F4420C8834004F456800146F6DF0B
:1006EF00E4800B0102040810204080900A63E47E2E
:1006FF00019360BCA3FF543F30E509541FFEE49300
:10070F00A360010ECF54C025E060A840B8E493A3C6
:10071F00FAE493A3F8E493A3C8C582C8CAC583CAF1
:10072F00F0A3C8C582C8CAC583CADFE9DEE780BEA9
:010A9F000056
:1003F400BB010689828A83E0225002E722BBFE0207
:09040400E32289828A83E4932239
:10040D00BB010CE58229F582E5833AF583E02250A4
:10041D0006E92582F8E622BBFE06E92582F8E222EE
:0D042D00E58229F582E5833AF583E4932208
:10043A00BB010689828A83F0225002F722BBFE01A1
:02044A00F3229B
:10044C0075F008758200EF2FFFEE33FECD33CDCC67
:10045C0033CCC58233C5829BED9AEC99E5829840EA
:10046C000CF582EE9BFEED9AFDEC99FC0FD5F0D6C7
:10047C00E4CEFBE4CDFAE4CCF9A88222B800C1B9F1
:10048C000059BA002DEC8BF084CFCECDFCE5F0CB2F
:10049C00F97818EF2FFFEE33FEED33FDEC33FCEB68
:1004AC0033FB10D703994004EB99FB0FD8E5E4F923
:1004BC00FA227818EF2FFFEE33FEED33FDEC33FC10
:1004CC00C933C910D7059BE99A4007EC9BFCE99A04
:1004DC00F90FD8E0E4C9FAE4CCFB2275F010EF2F49
:1004EC00FFEE33FEED33FDCC33CCC833C810D70749
:1004FC009BEC9AE899400AED9BFDEC9AFCE899F884
:0E050C000FD5F0DAE4CDFBE4CCFAE4C8F92216
:10051A00F8E0FBA3A3E0F925F0F0E582158270026A
:07052A001583E0FA38F0220E
:09053100EBF0A3EAF0A3E9F022CB
:10053A00D083D082F8E4937012740193700DA3A350
:10054A0093F8740193F5828883E473740293686064
:06055A00EFA3A3A380DF64
:100AD700EFB40A07740D120AE2740A309811A89944
:100AE700B8130CC2983098FDA899C298B811F6307F
:070AF70099FDC299F5992257
:00000001FF
