:100B7E0042003200004100371E4100361E41003057
:100B8E001E41002F1E410034004100310041002E55
:050B9E000041003800D9
:100C0B00E4FDFCC3ED9FEC9E5015E4FBFA0BBB001F
:0F0C1B00010ABA02F8BBCBF50DBD00010C80E455
:010C2A0022A7
:100D7F00438901758CFE758A70D2A9D28CD2AF22AD
:1008CB00120D6D120A9B120D7F120D9B120D1F90B4
:1008DB000034E0C3940540F7E4F090002EE004F000
:1008EB00E09428400DE4F0900039E0FEA3E0FF1205
:1008FB000A35900038E014F0E0700504F0120D6D2D
:10090B00120BE6900041E0B401C5E4F0900035E035
:10091B0024BE601314601514601724FB60182408A0
:10092B007017120D358012120D48800D120CBF80FE
:10093B0008120CD88003120D6D900035E0FF120DDC
:03094B008F808C0E
:03000B0002094E99
:10094E00C0E0C0F0C083C082C0D075D000C000C06F
:10095E0001C002C003C004C005C006C007758CFEEE
:10096E00758A70900031E004F0E0C3940A402CE4E4
:10097E00F0900033E004F07006900032E004F09046
:10098E000034E004F0C3900033E09432900032E083
:10099E0094004004E4F0A3F0120560D007D006D016
:1009AE0005D004D003D002D001D000D0D0D082D058
:0609BE0083D0F0D0E0320E
:100CA600253033640044697374616E63653A2000CD
:090CB600436F6D6D616E643A003C
:100C2B00E4FDFCC3ED9FEC9E5015E4FBFA0BBB00FF
:0F0C3B00010ABA02F8BBCBF50DBD00010C80E435
:010C4A002287
:0D0C4B00C286C2857F057E00120C58D2853E
:100C5800E4FDFCC3ED9FEC9E5008000DBD00010CA7
:020C680080F119
:010C6A002267
:100CF100C287D286D2857F017E00120C58E58033EF
:060D01009200C285A20071
:010D070022C9
:10001600AB07120CF140FBAF038FA0C287120C4B4B
:05002600C285020C5828
:060C8B003EF583E493FF37
:100C9100AB07120CF140FBAF038FA0D287120C4BB4
:050CA100C285020C58A1
:100A9B00E4FA7F381200167F0C1200167F06120044
:100AAB00167F011200167F647E00120C2B7F8012C2
:100ABB000016E4FAEAFF3395E0FE74AB2FF582746F
:100ACB000C120C8B0AEAB40AEB7FC0120016E4FA84
:100ADB00EAFF3395E0FE74B62FF582740C120C8B83
:050AEB000AEAB408EB6B
:010AF00022E3
:0C0D8F00AA077FC9120016AF02020C91E7
:100A3500E4900004F0A3F0900003F090000974FF27
:100A4500F0A3740CF0A374A6F0A3EEF0A3EFF07B73
:100A5500017A0079001200937F8A120016E4900053
:100A650004F0A3F0900004E0FEA3E0FFC39403EEBE
:100A750064809480501F74002FF58274003EF583C6
:100A8500E0FF120C91900005E004F070D79000048F
:050A9500E004F080CF39
:010A9A002239
:040BA30041004100CC
:100C6B00E4FDFCC3ED9FEC9E5015E4FBFA0BBB00BF
:0F0C7B00010ABA02F8BBCBF50DBD00010C80E4F5
:010C8A002247
:100D5B00AD071FED600BE4FEEEC3944450F20E8022
:010D6B00F790
:010D6C002264
:070D9B00D2A8D288D2AF22DA
:030003000206B33F
:1006B300C0E0C083C082C0D075D000C002C003C0F8
:0706C30004C005C006C007DA
:1006CA00E4FCC2A87F0F120D5B30B205D2A8020764
:1006DA009F9000387428F020B2077F01120D5B80CA
:1006EA00F6E4FBE4FA30B2077F01120D5B80F620D4
:1006FA00B2077F01120D5B80F630B2117F01120D35
:10070A005B0CECC3941E40F1D2A802079F74422BE3
:10071A00F582E43400F583E0C313F0ECC394084097
:10072A000E74422BF582E43400F583E04480F07CB9
:10073A00000AEAB408AF0BEBB404A8900045E0F451
:10074A00FF900044E0FE6F6004D2A88048EE24EBDC
:10075A00601724D5602B24FD601F14601424FE70DA
:10076A00289000357441F080249000357442F0805E
:10077A001C9000357443F080149000357444F08066
:10078A000C9000357449F08004D2A880089000418A
:05079A007401F0D2A87B
:10079F00D007D006D005D004D003D002D0D0D0825D
:0507AF00D083D0E03210
:10056000900037E0FFD3648094804018EF3395E02B
:10057000FEC3900033E09F900032E09E5033D29053
:10058000C2918031900037E0FFC364809480502195
:10059000EF3395E0FE7CFF7DFF120393C3900033A1
:1005A000E09F900032E09E5006C290D2918006807B
:1005B00000C290C291900036E0FFD36480948040E6
:1005C00018EF3395E0FEC3900033E09F900032E0D7
:1005D0009E5033D297C2968031900036E0FFC364BC
:1005E0008094805021EF3395E0FE7CFF7DFF120365
:1005F00093C3900033E09F900032E09E5006C29774
:10060000D29680068000C297C296900030E0FFD359
:10061000648094804018EF3395E0FEC3900033E08F
:100620009F900032E09E5033D293C292803190006E
:1006300030E0FFC3648094805021EF3395E0FE7C6E
:10064000FF7DFF120393C3900033E09F900032E0E0
:100650009E5006C293D29280068000C293C29290AE
:10066000002FE0FFD3648094804017EF3395E0FEC5
:10067000C3900033E09F900032E09E5031D294C28C
:10068000952290002FE0FFC3648094805020EF33C8
:1006900095E0FE7CFF7DFF120393C3900033E09F43
:1006A000900032E09E5005C294D295228000C29400
:0306B000C29522CE
:100D3500900037741EF0900036F0900030F090006F
:030D45002FF0226A
:100D480090003774E2F0900036F0900030F0900098
:030D58002FF02257
:100CBF0090003774ECF0900036741EF09000307492
:090CCF00ECF090002F7428F022D3
:100CD800900037741EF090003674ECF09000307479
:090CE80028F090002F74ECF022BA
:100D6D00E4900037F0900036F0900030F090002FB6
:020D7D00F02262
:100BA70041003D0042003F00004200390000410083
:070BB7003E0042003B00007C
:100D1F00C2B4E4F5CBF5CDF5CAF5CCC2CAD2ADC29B
:060D2F00AAD28AD2BA220A
:1009C40090003DE06401702ED2B404F0E4F5CDF55E
:1009D400CCD2CAE5CCC3942A40F990003D7402F00D
:1009E400C2B4E4F5CDF5CCC2CA30B3FDD2AAD2CAA2
:1009F40090003D7403F090003DE0B4042A90003F61
:100A0400E0FEA3E0FFE4FCFD7B22FAF9F81203A563
:100A1400E47B407A1FF9F8120B3A900039EEF0A308
:100A2400EFF0E490003DF090003DE0B40502E4F006
:010A3400229F
:070DA20090003D7401F022F6
:100BE60090003CE004F0700690003BE004F0C390F7
:100BF600003CE0940F90003BE094004007E4F0A333
:050C0600F0120840227D
:10084000D2B490003D7401F0E4F5CDF5CCD2CAE508
:10085000CCC3942A40F990003D7402F0C2B4E4F590
:10086000CDF5CCC2CAD2CA20B30990003DE0B40590
:10087000F6800FE4F5CDF5CC30B31090003DE0B438
:1008800005F6E4F0900039F0A3F022AFCDEFFEAD15
:10089000CC7C00E42DFFEC3E90003FF0A3EFF0C2D3
:1008A000CA90003FE0FEA3E0FFE4FD7B22FAF9F8E6
:1008B0001203A5E47B407A1FF9F8120B3A90003935
:0B08C000EEF0A3EFF0E490003DF0220A
:03001300020AF1ED
:100AF100C0E0C083C082C0D075D000C004C005C0B2
:100B010006C00790003DE0B4031EAFCDEFFEADCCB3
:100B11007C00E42DFFEC3E90003FF0A3EFF0C2AA71
:100B2100C2CA90003D7404F0D007D006D005D004AD
:090B3100D0D0D082D083D0E03294
:03002B00020D08BB
:100D0800C0E0C083C082C2CFC2AA90003D7405F083
:070D1800D082D083D0E0324D
:030000000207B440
:0C07B400787FE4F6D8FD7581210207FB78
:10039300EF8DF0A4A8F0CF8CF0A428CE8DF0A42E7E
:0203A300FE2238
:1003A500E88FF0A4CC8BF0A42CFCE98EF0A42CFCF7
:1003B5008AF0EDA42CFCEA8EF0A4CDA8F08BF0A475
:1003C5002DCC3825F0FDE98FF0A42CCD35F0FCEBD4
:1003D5008EF0A4FEA9F0EB8FF0A4CFC5F02ECD3999
:0F03E500FEE43CFCEAA42DCE35F0FDE43CFC2206
:100B3A00C2D5E830E70FB2D5E4C39BFBE49AFAE4E6
:100B4A0099F9E498F8EC30E717B2D5120B70120451
:100B5A0088E4C39BFBE49AFAE499F9E498F88003E1
:100B6A0012048830D50DE4C39FFFE49EFEE49DFD88
:040B7A00E49CFC22D9
:10002E00E5082409F582E43400F583E00508229002
:10003E000006300703900009E475F00112051A025C
:10004E0003F42000E97F2ED2008018EF540F249085
:10005E00D43440D4FF30040BEF24BFB41A00500345
:10006E002461FFE50960021509050CE50C70020517
:10007E000B30070E900006E475F00112051AEF0220
:10008E00043A020BBF7403D2078003E4C207F508DB
:10009E00900006120531E4F509F50BF50CE5096043
:1000AE00077F2012007180F5750AFFC201C200C2DF
:1000BE0002C203C205C206C20812003DFF700D3017
:1000CE0007057F00120082AF0CAE0B22B4255FC273
:1000DE00D5C20412003DFF24D0B40A00501A75F0A8
:1000EE000A780930D50508B6FF0106C6A426F62003
:1000FE00D5047002D20380D924CFB41A00EF500475
:10010E00C2E5D204020283D20180C6D20080C0D2E0
:10011E000280BCD2D580BAD20580B47F2012007185
:10012E002002077401B5090040F112002EFF1200E3
:10013E00710200ABD208D206809512002EFB12007F
:10014E002EFA12002EF94A4B700679547A037BFF71
:10015E0020022EE509602A7E008E8275830012042D
:10016E000D60060EEE650A70F0C2D5EBC0E0EAC077
:10017E00E0E9C0E0EE1202CAD0E0F9D0E0FAD0E039
:10018E00FB1203F4FF60AAEBC0E0EAC0E0E9C0E0B6
:10019E00120071D0E02401F9D0E03400FAD0E0FB77
:1001AE00E50A0460DCD50AD980877BFF7A0279C61E
:1001BE00D202809C791080027908C206C20880089B
:1001CE00D2D5790A8004790AC2D5E50A047002F5FF
:1001DE000AE4FAFDFEFF12002EFC7B08200113122A
:1001EE00002EFD7B1030000A12002EFE12002EFF94
:1001FE007B20EC3382D592D55013C3E43000069F9A
:10020E00FFE49EFEE42001039DFDE49CFCE4CBF89C
:10021E00C201EC700CCFCECDCCE824F8F870F38090
:10022E0017C3EF33FFEE33FEED33FDEC33FCEB3350
:10023E00FB994002FB0FD8E9EB300105F8D0E0C482
:10024E0048B201C0E00AEC4D4E4F78207B0070C2E0
:10025E00EAB50A0040BCC0E01202CCD0F0D0E020DB
:10026E000104C4C0E0C4B201C0F012005AD0F0D5EF
:10027E00F0EB0200AB12053A01485301C2580119C6
:10028E004C01154201C64F01CE4401CE49012E4309
:08029E0001D45501B84601B876
:1002A6004501B847037450011D2D01212E01442B31
:1002B600012523014220035D2A00DD480000013CA0
:1002C6003F3F3F00790AA2D5200314300509B91033
:1002D600020404B9080104A2D52006025001042034
:1002E60002689202B509005034C0E07F203003193D
:1002F6007F30A20272067205500F120323C202C299
:1003060006C205C2087F30800F300503E9C0E0123F
:100316000071300503D0E0F9D0E0B509CC300517FF
:100326007F30B9100C1200717F583004077F788037
:1003360003B908031200713002057F2D0200717F98
:10034600202008F87F2B2006F322920280CF286E09
:10035600756C6C2900D20112002E3001F8C20178AA
:100366000930D50108F60200DD2D50434958120028
:100376002E2403B405004001E490036F931200623B
:0D038600743A120062D2037509040201C22C
:1007C0000208CBE493A3F8E493A34003F68001F27C
:1007D00008DFF48029E493A3F85407240CC8C3333A
:1007E000C4540F4420C8834004F456800146F6DF09
:1007F000E4800B0102040810204080900B7EE47E10
:10080000019360BCA3FF543F30E509541FFEE493FD
:10081000A360010ECF54C025E060A840B8E493A3C4
:10082000FAE493A3F8E493A3C8C582C8CAC583CAEF
:10083000F0A3C8C582C8CAC583CADFE9DEE780BEA7
:010BBE000036
:1003F400BB010689828A83E0225002E722BBFE0207
:09040400E32289828A83E4932239
:10040D00BB010CE58229F582E5833AF583E02250A4
:10041D0006E92582F8E622BBFE06E92582F8E222EE
:0D042D00E58229F582E5833AF583E4932208
:10043A00BB010689828A83F0225002F722BBFE01A1
:02044A00F3229B
:10044C0075F008758200EF2FFFEE33FECD33CDCC67
:10045C0033CCC58233C5829BED9AEC99E5829840EA
:10046C000CF582EE9BFEED9AFDEC99FC0FD5F0D6C7
:10047C00E4CEFBE4CDFAE4CCF9A88222B800C1B9F1
:10048C000059BA002DEC8BF084CFCECDFCE5F0CB2F
:10049C00F97818EF2FFFEE33FEED33FDEC33FCEB68
:1004AC0033FB10D703994004EB99FB0FD8E5E4F923
:1004BC00FA227818EF2FFFEE33FEED33FDEC33FC10
:1004CC00C933C910D7059BE99A4007EC9BFCE99A04
:1004DC00F90FD8E0E4C9FAE4CCFB2275F010EF2F49
:1004EC00FFEE33FEED33FDCC33CCC833C810D70749
:1004FC009BEC9AE899400AED9BFDEC9AFCE899F884
:0E050C000FD5F0DAE4CDFBE4CCFAE4C8F92216
:10051A00F8E0FBA3A3E0F925F0F0E582158270026A
:07052A001583E0FA38F0220E
:09053100EBF0A3EAF0A3E9F022CB
:10053A00D083D082F8E4937012740193700DA3A350
:10054A0093F8740193F5828883E473740293686064
:06055A00EFA3A3A380DF64
:100BBF00EFB40A07740D120BCA740A309811A89972
:100BCF00B8130CC2983098FDA899C298B811F63096
:070BDF0099FDC299F599226E
:00000001FF
