:1002870042000300004100081E4100071E41000113
:100297001E4100001E410005004100020041000907
:0102A7000056
:040263007FB87E0BD7
:10026700E4FDFCC3ED9FEC9E5015E4FBFA0BBB00CD
:0F027700010ABA02F8BBCBF50DBD00010C80E403
:010286002255
:10034100438901758CFE758A70D2A9D28CD2AF22F5
:1002A90012031D1203411202F71202631202C9124C
:1002B90002631202E012026312031D12026380E656
:03000B000201ED02
:1001ED00C0E0C0F0C083C082C0D075D000C000C0D8
:1001FD0001C002C003C004C005C006C007758CFE57
:10020D00758A70900002E004F0E0C3940A402CE47B
:10021D00F0900004E004F07006900003E004F0900C
:10022D000005E004F0C3900004E09432900003E078
:10023D0094004004E4F0A3F012000ED007D006D0D5
:10024D0005D004D003D002D001D000D0D0D082D0C0
:06025D0083D0F0D0E03276
:10000E00900008E0FFD3648094804018EF3395E0B1
:10001E00FEC3900004E09F900003E09E5033D29008
:10002E00C2918031900008E0FFC36480948050211B
:10003E00EF3395E0FE7CFF7DFF12032FC39000048B
:10004E00E09F900003E09E5006C290D29180068001
:10005E0000C290C291900007E0FFD364809480406C
:10006E0018EF3395E0FEC3900004E09F900003E08C
:10007E009E5033D297C2968031900007E0FFC36442
:10008E008094805021EF3395E0FE7CFF7DFF1203BC
:10009E002FC3900004E09F900003E09E5006C2978D
:1000AE00D29680068000C297C296900001E0FFD3E0
:1000BE00648094804018EF3395E0FEC3900004E016
:1000CE009F900003E09E5033D293C29280319000F5
:1000DE0001E0FFC3648094805021EF3395E0FE7CF5
:1000EE00FF7DFF12032FC3900004E09F900003E0FA
:1000FE009E5006C293D29280068000C293C2929006
:10010E000000E0FFD3648094804017EF3395E0FE4B
:10011E00C3900004E09F900003E09E5031D294C241
:10012E009522900000E0FFC3648094805020EF334E
:10013E0095E0FE7CFF7DFF12032FC3900004E09F2D
:10014E00900003E09E5005C294D295228000C29486
:03015E00C2952225
:1002F700900008741EF0900007F0900001F0900045
:0303070000F022E1
:10030A0090000874E2F0900007F0900001F090006D
:03031A0000F022CE
:1002C900E4900008F0900007741EF0E4900001F03B
:0702D900900000741EF022EA
:1002E000900008741EF0E4900007F0900001741E66
:0702F000F0E4900000F02291
:10031D00E4900008F0900007F0900001F0900000CC
:02032D00F022BC
:0300000002016199
:0C016100787FE4F6D8FD7581070201A844
:10032F00EF8DF0A4A8F0CF8CF0A428CE8DF0A42EE2
:02033F00FE229C
:10016D000202A9E493A3F8E493A34003F68001F2FD
:10017D0008DFF48029E493A3F85407240CC8C33393
:10018D00C4540F4420C8834004F456800146F6DF62
:10019D00E4800B0102040810204080900287E47E69
:1001AD00019360BCA3FF543F30E509541FFEE49357
:1001BD00A360010ECF54C025E060A840B8E493A31E
:1001CD00FAE493A3F8E493A3C8C582C8CAC583CA49
:1001DD00F0A3C8C582C8CAC583CADFE9DEE780BE01
:0102A8000055
:00000001FF
