:10036600420003000041000828410007284100011F
:100376002841000028410005004100020041000A12
:05038600004100090028
:10038C00E4FDFCC3ED9FEC9E5015E4FBFA0BBB00A7
:0F039C00010ABA02F8BBCBF50DBD00010C80E4DD
:0103AB00222F
:0A04E100AE078E993099FDC29922F2
:10045000759850438920758780758DE6758BE6D237
:060460008ED2ACD2AF22E7
:1004C500438901758CFE758A70D2A9D28CD2AF2270
:10027B001204A11204501202E01204C5900005E012
:10028B00C3940540F7E4F090000AE014F0E0700529
:10029B0004F01204A1900009E0B401E0E4F0900036
:1002AB0006E024BE601314601514601724FB60185D
:1002BB002408701712047B801212048E800D120416
:1002CB0007800812042080031204A1900006E0FFAF
:0502DB001204D580A70C
:03000B00020205E9
:10020500C0E0C0F0C083C082C0D075D000C000C0BF
:1002150001C002C003C004C005C006C007758CFE3E
:10022500758A70900002E004F0E0C3940A402CE463
:10023500F0900004E004F07006900003E004F090F4
:100245000005E004F0C3900004E09432900003E060
:1002550094004004E4F0A3F0120026D007D006D0A5
:1002650005D004D003D002D001D000D0D0D082D0A8
:0602750083D0F0D0E0325E
:030023000203369F
:0D033600C0E0C083C082C0D075D000C007F9
:10034300309815AF999000097401F0900006EFF012
:08035300C29890000A7428F022
:0B035B00D007D0D0D082D083D0E03299
:1004660048616E74656368204D435500436F6D6D3A
:05047600616E643A0014
:1003AC00E4FDFCC3ED9FEC9E5015E4FBFA0BBB0087
:0F03BC00010ABA02F8BBCBF50DBD00010C80E4BD
:0103CB00220F
:0D03CC00C286C2857F057E001203D9D2854E
:1003D900E4FDFCC3ED9FEC9E5008000DBD00010C2F
:0203E90080F1A1
:0103EB0022EF
:10043900C287D286D2857F017E001203D9E5803337
:060449009200C285A20032
:01044F00228A
:10000E00AB0712043940FBAF038FA0C2871203CC9B
:05001E00C2850203D9B8
:0603EC003EF583E493FFDF
:1003F200AB0712043940FBAF038FA0D2871203CCA4
:05040200C2850203D9D0
:1002E000E4FA7F3812000E7F0C12000E7F06120017
:1002F0000E7F0112000E7F647E001203AC7F80121D
:10030000000EE4FAEAFF3395E0FE74662FF582747E
:10031000041203EC0AEAB40BEB7FC012000EE4FAFD
:10032000EAFF3395E0FE74722FF58274041203EC39
:050330000AEAB408EB2D
:0103350022A5
:0C04D500AA077FC912000EAF020203F25A
:10002600900008E0FFD3648094804018EF3395E099
:10003600FEC3900004E09F900003E09E5033D290F0
:10004600C2918031900008E0FFC364809480502103
:10005600EF3395E0FE7CFF7DFF1204B3C3900004EE
:10006600E09F900003E09E5006C290D291800680E9
:1000760000C290C291900007E0FFD3648094804054
:1000860018EF3395E0FEC3900004E09F900003E074
:100096009E5033D297C2968031900007E0FFC3642A
:1000A6008094805021EF3395E0FE7CFF7DFF1204A3
:1000B600B3C3900004E09F900003E09E5006C297F1
:1000C600D29680068000C297C296900001E0FFD3C8
:1000D600648094804018EF3395E0FEC3900004E0FE
:1000E6009F900003E09E5033D293C29280319000DD
:1000F60001E0FFC3648094805021EF3395E0FE7CDD
:10010600FF7DFF1204B3C3900004E09F900003E05C
:100116009E5006C293D29280068000C293C29290ED
:100126000000E0FFD3648094804017EF3395E0FE33
:10013600C3900004E09F900003E09E5031D294C229
:100146009522900000E0FFC3648094805020EF3336
:1001560095E0FE7CFF7DFF1204B3C3900004E09F90
:10016600900003E09E5005C294D295228000C2946E
:03017600C295220D
:10047B009000087428F0900007F0900001F09000B5
:03048B0000F0225C
:10048E0090000874D8F0900007F0900001F09000F2
:03049E0000F02249
:1004070090000874ECF09000077428F090000174D5
:09041700ECF09000007432F022B8
:100420009000087428F090000774ECF090000174BC
:0904300032F090000074ECF0229F
:1004A100E4900008F0900007F0900001F090000047
:0204B100F02237
:0300000002017981
:0C017900787FE4F6D8FD7581200201C0FB
:1004B300EF8DF0A4A8F0CF8CF0A428CE8DF0A42E5D
:0204C300FE2217
:1001850002027BE493A3F8E493A34003F68001F213
:1001950008DFF48029E493A3F85407240CC8C3337B
:1001A500C4540F4420C8834004F456800146F6DF4A
:1001B500E4800B0102040810204080900366E47E71
:1001C500019360BCA3FF543F30E509541FFEE4933F
:1001D500A360010ECF54C025E060A840B8E493A306
:1001E500FAE493A3F8E493A3C8C582C8CAC583CA31
:1001F500F0A3C8C582C8CAC583CADFE9DEE780BEE9
:01038B000071
:00000001FF
